{
  "contractName": "SimpleTransaction",
  "abi": [
    {
      "inputs": [],
      "stateMutability": "nonpayable",
      "type": "constructor"
    },
    {
      "inputs": [],
      "name": "owner",
      "outputs": [
        {
          "internalType": "address",
          "name": "",
          "type": "address"
        }
      ],
      "stateMutability": "view",
      "type": "function",
      "constant": true
    },
    {
      "inputs": [
        {
          "internalType": "address payable",
          "name": "recipient",
          "type": "address"
        }
      ],
      "name": "sendINR",
      "outputs": [],
      "stateMutability": "payable",
      "type": "function",
      "payable": true
    },
    {
      "inputs": [],
      "name": "getBalance",
      "outputs": [
        {
          "internalType": "uint256",
          "name": "",
          "type": "uint256"
        }
      ],
      "stateMutability": "view",
      "type": "function",
      "constant": true
    }
  ],
  "bytecode": "0x608060405234801561001057600080fd5b50336000806101000a81548173ffffffffffffffffffffffffffffffffffffffff021916908373ffffffffffffffffffffffffffffffffffffffff160217905550610302806100606000396000f3fe6080604052600436106100345760003560e01c806312065fe0146100395780638da5cb5b14610064578063d7c3257a1461008f575b600080fd5b34801561004557600080fd5b5061004e6100ab565b60405161005b919061023b565b60405180910390f35b34801561007057600080fd5b506100796100b3565b6040516100869190610200565b60405180910390f35b6100a960048036038101906100a49190610179565b6100d7565b005b600047905090565b60008054906101000a900473ffffffffffffffffffffffffffffffffffffffff1681565b6000341161011a576040517f08c379a00000000000000000000000000000000000000000000000000000000081526004016101119061021b565b60405180910390fd5b8073ffffffffffffffffffffffffffffffffffffffff166108fc349081150290604051600060405180830381858888f19350505050158015610160573d6000803e3d6000fd5b5050565b600081359050610173816102b5565b92915050565b60006020828403121561018b57600080fd5b600061019984828501610164565b91505092915050565b6101ab81610267565b82525050565b60006101be602083610256565b91507f416d6f756e74206d7573742062652067726561746572207468616e207a65726f6000830152602082019050919050565b6101fa816102ab565b82525050565b600060208201905061021560008301846101a2565b92915050565b60006020820190508181036000830152610234816101b1565b9050919050565b600060208201905061025060008301846101f1565b92915050565b600082825260208201905092915050565b60006102728261028b565b9050919050565b60006102848261028b565b9050919050565b600073ffffffffffffffffffffffffffffffffffffffff82169050919050565b6000819050919050565b6102be81610279565b81146102c957600080fd5b5056fea2646970667358221220c0bfa5f1e4ef3ba6eddd78531a03b4ee1f92fe113cbf0fcc74a7c63b614ed98864736f6c63430008000033",
  "immutableReferences": {},
  "source": "// contracts/SimpleTransaction.sol\r\npragma solidity ^0.8.0;\r\n\r\ncontract SimpleTransaction {\r\n    address public owner;\r\n\r\n    constructor() {\r\n        owner = msg.sender;\r\n    }\r\n\r\n    function sendINR(address payable recipient) public payable {\r\n        require(msg.value > 0, \"Amount must be greater than zero\");\r\n        recipient.transfer(msg.value);\r\n    }\r\n\r\n    function getBalance() public view returns (uint) {\r\n        return address(this).balance;\r\n    }\r\n}\r\n",
  "sourcePath": "C:\\Users\\Bhara\\Documents\\BasicTransactionINR\\contracts\\SimpleTransaction.sol",
  "compiler": {
    "name": "solc",
    "version": "0.8.0+commit.c7dfd78e.Emscripten.clang"
  },
  "schemaVersion": "3.4.16",
  "updatedAt": "2024-07-11T04:24:54.072Z",
  "networkType": "ethereum",
  "devdoc": {
    "kind": "dev",
    "methods": {},
    "version": 1
  },
  "userdoc": {
    "kind": "user",
    "methods": {},
    "version": 1
  }
}